{
  "contractName": "Merchandise",
  "abi": [
    {
      "constant": true,
      "inputs": [
        {
          "name": "",
          "type": "uint256"
        }
      ],
      "name": "items",
      "outputs": [
        {
          "name": "itemId",
          "type": "uint256"
        },
        {
          "name": "seller",
          "type": "address"
        },
        {
          "name": "buyer",
          "type": "address"
        },
        {
          "name": "itemName",
          "type": "string"
        },
        {
          "name": "itemDesc",
          "type": "string"
        },
        {
          "name": "itemPrice",
          "type": "uint256"
        },
        {
          "name": "sold",
          "type": "bool"
        },
        {
          "name": "shipped",
          "type": "bool"
        },
        {
          "name": "received",
          "type": "bool"
        }
      ],
      "payable": false,
      "stateMutability": "view",
      "type": "function"
    },
    {
      "inputs": [],
      "payable": false,
      "stateMutability": "nonpayable",
      "type": "constructor"
    },
    {
      "anonymous": false,
      "inputs": [
        {
          "indexed": false,
          "name": "seller",
          "type": "address"
        },
        {
          "indexed": false,
          "name": "name",
          "type": "string"
        },
        {
          "indexed": false,
          "name": "price",
          "type": "uint256"
        }
      ],
      "name": "AddListing",
      "type": "event"
    },
    {
      "constant": false,
      "inputs": [],
      "name": "kill",
      "outputs": [],
      "payable": false,
      "stateMutability": "nonpayable",
      "type": "function"
    },
    {
      "constant": false,
      "inputs": [
        {
          "name": "status",
          "type": "bool"
        }
      ],
      "name": "setOnline",
      "outputs": [],
      "payable": false,
      "stateMutability": "nonpayable",
      "type": "function"
    },
    {
      "constant": false,
      "inputs": [
        {
          "name": "name",
          "type": "string"
        },
        {
          "name": "description",
          "type": "string"
        },
        {
          "name": "price",
          "type": "uint256"
        }
      ],
      "name": "addItem",
      "outputs": [
        {
          "name": "",
          "type": "uint256"
        }
      ],
      "payable": false,
      "stateMutability": "nonpayable",
      "type": "function"
    },
    {
      "constant": true,
      "inputs": [
        {
          "name": "itemId",
          "type": "uint256"
        }
      ],
      "name": "getItem",
      "outputs": [
        {
          "name": "",
          "type": "uint256"
        },
        {
          "name": "",
          "type": "string"
        },
        {
          "name": "",
          "type": "string"
        },
        {
          "name": "",
          "type": "uint256"
        },
        {
          "name": "",
          "type": "bool"
        },
        {
          "name": "",
          "type": "bool"
        },
        {
          "name": "",
          "type": "bool"
        }
      ],
      "payable": false,
      "stateMutability": "view",
      "type": "function"
    },
    {
      "constant": false,
      "inputs": [
        {
          "name": "itemId",
          "type": "uint256"
        }
      ],
      "name": "buyItem",
      "outputs": [
        {
          "name": "",
          "type": "bool"
        }
      ],
      "payable": true,
      "stateMutability": "payable",
      "type": "function"
    },
    {
      "constant": false,
      "inputs": [
        {
          "name": "itemId",
          "type": "uint256"
        }
      ],
      "name": "shipItem",
      "outputs": [],
      "payable": false,
      "stateMutability": "nonpayable",
      "type": "function"
    },
    {
      "constant": false,
      "inputs": [
        {
          "name": "itemId",
          "type": "uint256"
        }
      ],
      "name": "receiveItem",
      "outputs": [],
      "payable": false,
      "stateMutability": "nonpayable",
      "type": "function"
    },
    {
      "constant": false,
      "inputs": [
        {
          "name": "itemId",
          "type": "uint256"
        }
      ],
      "name": "claimFunds",
      "outputs": [],
      "payable": false,
      "stateMutability": "nonpayable",
      "type": "function"
    }
  ],
  "bytecode": "0x608060405234801561001057600080fd5b50336000806101000a81548173ffffffffffffffffffffffffffffffffffffffff021916908373ffffffffffffffffffffffffffffffffffffffff1602179055506001600060146101000a81548160ff0219169083151502179055506112c78061007b6000396000f300608060405260043610610099576000357c0100000000000000000000000000000000000000000000000000000000900463ffffffff1680631b55e3381461009e5780633129e773146100cb57806341c0e1b51461020c57806364432eb814610223578063a26be999146102f0578063b0fa39031461031d578063bfb231d21461034c578063e7fb74c7146104f3578063f61c899a1461052b575b600080fd5b3480156100aa57600080fd5b506100c960048036038101908080359060200190929190505050610558565b005b3480156100d757600080fd5b506100f66004803603810190808035906020019092919050505061065e565b604051808881526020018060200180602001878152602001861515151581526020018515151515815260200184151515158152602001838103835289818151815260200191508051906020019080838360005b83811015610164578082015181840152602081019050610149565b50505050905090810190601f1680156101915780820380516001836020036101000a031916815260200191505b50838103825288818151815260200191508051906020019080838360005b838110156101ca5780820151818401526020810190506101af565b50505050905090810190601f1680156101f75780820380516001836020036101000a031916815260200191505b50995050505050505050505060405180910390f35b34801561021857600080fd5b506102216108c6565b005b34801561022f57600080fd5b506102da600480360381019080803590602001908201803590602001908080601f0160208091040260200160405190810160405280939291908181526020018383808284378201915050505050509192919290803590602001908201803590602001908080601f01602080910402602001604051908101604052809392919081815260200183838082843782019150505050505091929192908035906020019092919050505061095b565b6040518082815260200191505060405180910390f35b3480156102fc57600080fd5b5061031b60048036038101908080359060200190929190505050610ce4565b005b34801561032957600080fd5b5061034a600480360381019080803515159060200190929190505050610dd9565b005b34801561035857600080fd5b5061037760048036038101908080359060200190929190505050610e51565b604051808a81526020018973ffffffffffffffffffffffffffffffffffffffff1673ffffffffffffffffffffffffffffffffffffffff1681526020018873ffffffffffffffffffffffffffffffffffffffff1673ffffffffffffffffffffffffffffffffffffffff1681526020018060200180602001878152602001861515151581526020018515151515815260200184151515158152602001838103835289818151815260200191508051906020019080838360005b8381101561044957808201518184015260208101905061042e565b50505050905090810190601f1680156104765780820380516001836020036101000a031916815260200191505b50838103825288818151815260200191508051906020019080838360005b838110156104af578082015181840152602081019050610494565b50505050905090810190601f1680156104dc5780820380516001836020036101000a031916815260200191505b509b50505050505050505050505060405180910390f35b61051160048036038101908080359060200190929190505050611045565b604051808215151515815260200191505060405180910390f35b34801561053757600080fd5b506105566004803603810190808035906020019092919050505061117b565b005b60011515600060149054906101000a900460ff16151514151561057a57600080fd5b60018181548110151561058957fe5b906000526020600020906007020160010160009054906101000a900473ffffffffffffffffffffffffffffffffffffffff1673ffffffffffffffffffffffffffffffffffffffff163373ffffffffffffffffffffffffffffffffffffffff161415156105f457600080fd5b3373ffffffffffffffffffffffffffffffffffffffff166108fc60018381548110151561061d57fe5b9060005260206000209060070201600501549081150290604051600060405180830381858888f1935050505015801561065a573d6000803e3d6000fd5b5050565b600060608060008060008060018881548110151561067857fe5b90600052602060002090600702016000015460018981548110151561069957fe5b906000526020600020906007020160030160018a8154811015156106b957fe5b906000526020600020906007020160040160018b8154811015156106d957fe5b90600052602060002090600702016005015460018c8154811015156106fa57fe5b906000526020600020906007020160060160009054906101000a900460ff1660018d81548110151561072857fe5b906000526020600020906007020160060160019054906101000a900460ff1660018e81548110151561075657fe5b906000526020600020906007020160060160029054906101000a900460ff16858054600181600116156101000203166002900480601f01602080910402602001604051908101604052809291908181526020018280546001816001161561010002031660029004801561080a5780601f106107df5761010080835404028352916020019161080a565b820191906000526020600020905b8154815290600101906020018083116107ed57829003601f168201915b50505050509550848054600181600116156101000203166002900480601f0160208091040260200160405190810160405280929190818152602001828054600181600116156101000203166002900480156108a65780601f1061087b576101008083540402835291602001916108a6565b820191906000526020600020905b81548152906001019060200180831161088957829003601f168201915b505050505094509650965096509650965096509650919395979092949650565b6000809054906101000a900473ffffffffffffffffffffffffffffffffffffffff1673ffffffffffffffffffffffffffffffffffffffff163373ffffffffffffffffffffffffffffffffffffffff1614151561092157600080fd5b6000809054906101000a900473ffffffffffffffffffffffffffffffffffffffff1673ffffffffffffffffffffffffffffffffffffffff16ff5b60008060011515600060149054906101000a900460ff16151514151561098057600080fd5b6000831115156109f8576040517f08c379a000000000000000000000000000000000000000000000000000000000815260040180806020018281038252601f8152602001807f5072696365206d7573742062652067726561746572207468616e207a65726f0081525060200191505060405180910390fd5b600180549050905060016101206040519081016040528060018054905081526020013373ffffffffffffffffffffffffffffffffffffffff168152602001600073ffffffffffffffffffffffffffffffffffffffff16815260200187815260200186815260200185815260200160001515815260200160001515815260200160001515815250908060018154018082558091505090600182039060005260206000209060070201600090919290919091506000820151816000015560208201518160010160006101000a81548173ffffffffffffffffffffffffffffffffffffffff021916908373ffffffffffffffffffffffffffffffffffffffff16021790555060408201518160020160006101000a81548173ffffffffffffffffffffffffffffffffffffffff021916908373ffffffffffffffffffffffffffffffffffffffff1602179055506060820151816003019080519060200190610b5d9291906111f6565b506080820151816004019080519060200190610b7a9291906111f6565b5060a0820151816005015560c08201518160060160006101000a81548160ff02191690831515021790555060e08201518160060160016101000a81548160ff0219169083151502179055506101008201518160060160026101000a81548160ff0219169083151502179055505050507f271a9d337f855516cc23940a051d5bac633dae3335001c96c1951710c7e44a7a338685604051808473ffffffffffffffffffffffffffffffffffffffff1673ffffffffffffffffffffffffffffffffffffffff16815260200180602001838152602001828103825284818151815260200191508051906020019080838360005b83811015610c85578082015181840152602081019050610c6a565b50505050905090810190601f168015610cb25780820380516001836020036101000a031916815260200191505b5094505050505060405180910390a160018101600180549050141515610cd457fe5b6001805490509150509392505050565b60011515600182815481101515610cf757fe5b906000526020600020906007020160060160019054906101000a900460ff161515141515610d2457600080fd5b600181815481101515610d3357fe5b906000526020600020906007020160020160009054906101000a900473ffffffffffffffffffffffffffffffffffffffff1673ffffffffffffffffffffffffffffffffffffffff163373ffffffffffffffffffffffffffffffffffffffff16141515610d9e57600080fd5b60018082815481101515610dae57fe5b906000526020600020906007020160060160026101000a81548160ff02191690831515021790555050565b6000809054906101000a900473ffffffffffffffffffffffffffffffffffffffff1673ffffffffffffffffffffffffffffffffffffffff163373ffffffffffffffffffffffffffffffffffffffff16141515610e3457600080fd5b80600060146101000a81548160ff02191690831515021790555050565b600181815481101515610e6057fe5b90600052602060002090600702016000915090508060000154908060010160009054906101000a900473ffffffffffffffffffffffffffffffffffffffff16908060020160009054906101000a900473ffffffffffffffffffffffffffffffffffffffff1690806003018054600181600116156101000203166002900480601f016020809104026020016040519081016040528092919081815260200182805460018160011615610100020316600290048015610f5e5780601f10610f3357610100808354040283529160200191610f5e565b820191906000526020600020905b815481529060010190602001808311610f4157829003601f168201915b505050505090806004018054600181600116156101000203166002900480601f016020809104026020016040519081016040528092919081815260200182805460018160011615610100020316600290048015610ffc5780601f10610fd157610100808354040283529160200191610ffc565b820191906000526020600020905b815481529060010190602001808311610fdf57829003601f168201915b5050505050908060050154908060060160009054906101000a900460ff16908060060160019054906101000a900460ff16908060060160029054906101000a900460ff16905089565b60006001600060146101000a81548160ff0219169083151502179055151561106c57600080fd5b60018281548110151561107b57fe5b9060005260206000209060070201600501543414151561109a57600080fd5b600115156001838154811015156110ad57fe5b906000526020600020906007020160060160009054906101000a900460ff161515141515156110db57600080fd5b336001838154811015156110eb57fe5b906000526020600020906007020160020160006101000a81548173ffffffffffffffffffffffffffffffffffffffff021916908373ffffffffffffffffffffffffffffffffffffffff1602179055506001808381548110151561114a57fe5b906000526020600020906007020160060160006101000a81548160ff02191690831515021790555060019050919050565b6001151560018281548110151561118e57fe5b906000526020600020906007020160060160009054906101000a900460ff1615151415156111bb57600080fd5b600180828154811015156111cb57fe5b906000526020600020906007020160060160016101000a81548160ff02191690831515021790555050565b828054600181600116156101000203166002900490600052602060002090601f016020900481019282601f1061123757805160ff1916838001178555611265565b82800160010185558215611265579182015b82811115611264578251825591602001919060010190611249565b5b5090506112729190611276565b5090565b61129891905b8082111561129457600081600090555060010161127c565b5090565b905600a165627a7a72305820be3e5439f4fabafd70757f2d2d5153213a5e737c884c47e9e8b98693e68edd210029",
  "source": "pragma solidity ^0.4.23;\n\ncontract Merchandise {\n    address owner;\n    bool online;\n    struct Item {\n        uint itemId;\n        address seller;\n        address buyer;\n        string itemName;\n        string itemDesc;\n        uint itemPrice;\n        bool sold;\n        bool shipped;\n        bool received;\n    }\n\n    Item[] public items;\n\n    constructor() public {\n        owner = msg.sender;\n        online = true;\n        // addItem(\"First Item\", \"Added by Contract deployment\", 1 ether);\n    }\n\n    function kill() public {\n        require(msg.sender == owner);\n        selfdestruct(owner);\n    }\n\n    function setOnline(bool status) public {\n        require(msg.sender == owner);\n        online = status;\n    }\n\n    event AddListing(\n        address seller,\n        string name,\n        uint price\n    );\n\n    function addItem(string name, string description, uint price) public returns(uint) {\n        require(online == true);\n        require(price > 0, \"Price must be greater than zero\");\n        uint initialLength = items.length;\n        items.push(Item({\n            itemId: items.length,\n            seller: msg.sender,\n            buyer: address(0),\n            itemName: name,\n            itemDesc: description,\n            itemPrice: price,\n            sold: false,\n            shipped: false,\n            received: false\n        }));\n        emit AddListing(msg.sender, name, price);\n        assert(items.length == initialLength + 1);\n        return items.length;\n    }\n\n    function getItem(uint itemId) public view returns(\n        uint, string, string, uint, bool, bool, bool\n    ) {\n        return (\n            items[itemId].itemId,\n            items[itemId].itemName,\n            items[itemId].itemDesc,\n            items[itemId].itemPrice,\n            items[itemId].sold,\n            items[itemId].shipped,\n            items[itemId].received\n        );\n    }\n\n    function buyItem(uint itemId) public payable returns(bool) {\n        require(online = true);\n        require(msg.value == items[itemId].itemPrice);\n        require(items[itemId].sold != true);\n        items[itemId].buyer = msg.sender;\n        items[itemId].sold = true;\n        return true;\n    }\n\n    function shipItem(uint itemId) public {\n        require(items[itemId].sold == true);\n        items[itemId].shipped = true;\n    }\n\n    function receiveItem(uint itemId) public {\n        require(items[itemId].shipped == true);\n        require(msg.sender == items[itemId].buyer);\n        items[itemId].received = true;\n    }\n\n    function claimFunds(uint itemId) public {\n        require(online == true);\n        require(msg.sender == items[itemId].seller);\n        msg.sender.transfer(items[itemId].itemPrice);\n    }\n\n}",
  "sourcePath": "F:\\My Dev\\Blockchain Dev\\finaletherslist\\contracts\\Merchandise.sol",
  "compiler": {
    "name": "solc",
    "version": "0.4.24+commit.e67f0147.Emscripten.clang"
  },
  "schemaVersion": "2.0.1",
  "updatedAt": "2018-11-01T12:15:31.911Z"
}